:020000040800F2
:10000000C00B0020CD01000871170008AD140008D6
:100010002D1700083F050008EB3000080000000025
:100020000000000000000000000000008D1B000820
:10003000BD07000800000000351800081D1F00085B
:10004000E7010008E7010008E7010008E7010008F0
:10005000E7010008E7010008DB070008E7010008E6
:10006000E7010008E7010008E7010008E7010008D0
:10007000E7010008E7010008E7010008E7010008C0
:10008000E7010008E7010008E7010008E7010008B0
:10009000E7010008E7010008E7010008E7010008A0
:1000A000E7010008E7010008E7010008E701000890
:1000B0009D220008C12200085D250008E701000814
:1000C000E7010008E7010008E7010008E701000870
:1000D000E7010008812D0008812E0008DD2E0008B0
:1000E000EB070008E7010008E7010008E701000846
:1000F000E7010008E7010008E7010008E701000840
:10010000E7010008E7010008FD250008E7010008F5
:10011000E7010008E7010008E7010008E70100081F
:10012000E7010008E7010008E7010008E70100080F
:1001300000F002F800F03AF80AA090E8000C8244BF
:100140008344AAF10107DA4501D100F02FF8AFF29C
:10015000090EBAE80F0013F0010F18BFFB1A43F0A5
:100160000103184704A3040024A30400103A24BF89
:1001700078C878C1FAD8520724BF30C830C144BF0C
:1001800004680C607047000000230024002500264E
:10019000103A28BF78C1FBD8520728BF30C148BFEA
:1001A0000B6070471FB51FBD10B510BD00F05EF8A5
:1001B0001146FFF7F7FF04F04BF800F07CF803B4AA
:1001C000FFF7F2FF03BC03F08FF8000009488047F7
:1001D00009480047FEE7FEE7FEE7FEE7FEE7FEE729
:1001E000FEE7FEE7FEE7FEE704480549054A064B41
:1001F00070470000211F000831010008C0050020E1
:10020000C00B0020C0070020C007002070474FF03F
:10021000000200B5134694469646203922BFA0E856
:100220000C50A0E80C50B1F12001BFF4F7AF090762
:1002300028BFA0E80C5048BF0CC05DF804EB890053
:1002400028BF40F8042B08BF704748BF20F8022B96
:1002500011F0804F18BF00F8012B704770477047AE
:1002600070477047004870475C0500207546FFF7EF
:10027000F9FFAE4605006946534620F00700854663
:1002800018B020B5FFF7B0FFBDE820404FF00006E2
:100290004FF000074FF000084FF0000B21F007016E
:1002A000AC46ACE8C009ACE8C009ACE8C009ACE8B1
:1002B000C0098D46704710B50446AFF30080204654
:1002C000BDE81040FFF77BBF00B587B001214FF4B8
:1002D000017001F0EDFA4FF4004001F0ADFA0C208E
:1002E000ADF8040000208DF8070001A9174800F0C0
:1002F0003CFB174800F03AF8002002908DF80C0003
:100300008DF80D004FF4602004900020059002202D
:100310008DF8180002A90E4800F078F801210C4869
:1003200000F018F80A4800F0F5F800BF084800F09F
:1003300062F80028FAD1064800F0FCF800BF044833
:1003400000F042F80028FAD107B000BD00080140D3
:100350000024014021B1826842F00102826003E082
:10036000826822F0010282607047000010B50446E6
:100370001248844208D10121401501F0A9FA002158
:10038000601501F0A5FA17E00D48844208D101215B
:10039000001501F09DFA0021201501F099FA0BE0FB
:1003A0000848844208D10121C80301F091FA0021D4
:1003B0004FF4004001F08CFA10BD00000024014011
:1003C00000280140003C0140014600208A6802F0FC
:1003D00004020AB1012000E0002070470146C86C09
:1003E00080B270470246002013680B400BB1012019
:1003F00000E000207047014600208A6802F00802F1
:100400000AB1012000E000207047000030B502462C
:100410000020002350680F4C20400D790C6844EAFE
:1004200005242043506090680B4C2040D1E90254D1
:100430002C434D7944EA450420439060D06A20F46F
:1004400070000C7C641EE4B2234340EA0350D06287
:1004500030BD0000FFFEF0FFFDF7F1FFF0B50446F0
:100460000D4600200021092D11DDE068A5F10A06E6
:1004700006EB4607072606FA07F18843A5F10A06A8
:1004800006EB460603FA06F10843E0600CE020693B
:1004900005EB4507072606FA07F1884305EB4506F5
:1004A00003FA06F108432061072A0FDA606B561E33
:1004B00006EB86071F2606FA07F18843561E06EB51
:1004C000860605FA06F10843606322E00D2A0FDA7A
:1004D000206BD61F06EB86071F2606FA07F1884316
:1004E000D61F06EB860605FA06F10843206310E0E6
:1004F000E06AA2F10D0606EB86071F2606FA07F151
:100500008843A2F10D0606EB860605FA06F10843BC
:10051000E062F0BD816841F008018160704721B15F
:10052000826842F4A002826003E0826822F4A002A2
:1005300082607047816841F004018160704700BFAC
:10054000FEE7000000B585B000F04EF80121042060
:1005500001F0AEF90121480701F08AF91020ADF849
:10056000100000208DF8130003208DF8120004A95C
:100570000C4800F0FAF910210A4800F0D4FA0020E3
:100580000090019002900390694600F039F8012133
:10059000002000F015F840F6FF71002000F04AF846
:1005A00005B000BD0008014010B5044621460020FA
:1005B00000F040F80121002000F04CF810BD0000D0
:1005C00039B1084A1268012383401A43054B1A6067
:1005D00006E0044A1268012383409A43014B1A60E3
:1005E000704700000074004010B50121480701F079
:1005F0004FF900214FF0005001F04AF910BD000002
:1006000030B5002200230A4C226840F6FE74844074
:10061000A243D1E900452C438D682C43CD6844EAC0
:10062000050303FA00F42243014C226030BD0000B0
:100630000074004008B500220092054A009200F1C3
:100640000802009B1A440092009A116008BD000045
:100650000074004010B541B1084A12680409012332
:10066000A3401A43054B1A6007E0044A12680409C4
:100670000123A3409A43014B1A6010BD047400404B
:1006800001460A2900DC09B9002070472420214ACC
:1006900010700B293CD2DFE801F03B060B10151A55
:1006A0001F24292F350005201A4A50710620ECE737
:1006B0000920184A50720A20E7E70D20154A5073A6
:1006C0000E20E2E71120134A50741220DDE71520B6
:1006D000104A50751620D8E719200E4A50761A2075
:1006E000D3E71D200B4A50771E20CEE72120094A70
:1006F00082F821002220C8E72520064A82F825003A
:100700002620C2E72920034A82F829002A20BCE7D4
:100710000020BAE70002002013B50C460A2C00DCCA
:1007200004B91CBD0B2C43D2DFE804F042060C12C6
:10073000181E242A30363C0001221F49684600F06A
:1007400006F935E005221C49684600F000F92FE063
:1007500009221949684600F0FAF829E00D221649E5
:10076000684600F0F4F823E011221349684600F0CF
:10077000EEF81DE015221049684600F0E8F817E091
:1007800019220D49684600F0E2F811E01D220A49DD
:10079000684600F0DCF80BE021220749684600F0CB
:1007A000D6F805E025220449684600F0D0F800BFDD
:1007B00000BF00BFB5E700000002002070470146FF
:1007C00006E0002000E0401C42F210729042FAD392
:1007D0000A1EA1F10101F4D1704710B5012000F00B
:1007E00015F8012000F00CF810BD10B54FF40050C2
:1007F00000F00CF84FF4005000F002F810BD0000BB
:1008000001490860704700001404014001460020BF
:100810000022074B1B6803EA0102054B14331B68D7
:100820000B4013B10AB1012000E000207047000026
:100830000004014051B18200A2F1C042126842F0AE
:1008400001038200A2F1C042136009E08200A2F11C
:10085000C0421268034B1A408300A3F1C0431A60E0
:1008600070470000FEFF0F00D0E901121143C2687B
:100870001143026911434269114382691143C269FC
:100880001143026A1143426A1143826A1143C26AE8
:100890001143026B114302689200A2F1C042116041
:1008A000816808290BD101688900A1F1C04109685C
:1008B00041F0400201688900A1F1C0410A60416B2A
:1008C0000968426B526841EA0211426B926841EA40
:1008D0000221426B928941EA0241426B128A41EA4B
:1008E0000251426B127D41EA0261426B92691143EF
:1008F0000268521C9200A2F1C0421160C16AB1F5B7
:10090000804F1BD1816B0968826B526841EA0211EA
:10091000826B926841EA0221826B128A41EA02519B
:10092000826B127D41EA0261826B92691143026817
:100930009200A2F1C042C2F8041107E06FF07042C9
:1009400001688900A1F1C041C1F80421704730B5A8
:1009500003461C788C545D78541C0D559D78941C6E
:100960000D55DD78D41C0D5530BD2DE9F041024602
:1009700000250026002000230024002791F803C052
:100980000CF00F0591F803C00CF0100CBCF1000F37
:1009900003D091F802C04CEA050591F800C0BCF103
:1009A000000F31D0146800202BE04FF0010C0CFA3E
:1009B00000F3B1F800C00CEA03069E4220D1830088
:1009C0004FF00F0C0CFA03F7BC4305FA03FC4CEA9A
:1009D000040491F803C0BCF1280F06D14FF0010CBC
:1009E0000CFA00FCC2F814C00AE091F803C0BCF194
:1009F000480F05D14FF0010C0CFA00FCC2F810C0F2
:100A0000401C0828D1D31460B1F800C0BCF1FF0F1E
:100A100034DD546800202EE000F1080C4FF001088E
:100A200008FA0CF3B1F800C00CEA03069E4221D18B
:100A300083004FF00F0C0CFA03F7BC4305FA03FCDC
:100A40004CEA040491F803C0BCF1280F05D100F171
:100A5000080C08FA0CF8C2F8148091F803C0BCF135
:100A6000480F07D100F1080C4FF0010808FA0CF804
:100A7000C2F81080401C0828CED35460BDE8F08135
:100A8000F0B50A46002300240021002500F00046AE
:100A9000B6F1004F02D11D4EF16901E01B4E7168A5
:100AA000C0F3034583B200F44016B6F5401F08D1E9
:100AB00021F07061154E766826F07066134F7E60E7
:100AC00012E000F48016B6F5801F06D1032606FA60
:100AD00005F4A14341F0706106E0460D360103FACA
:100AE00006F6B14341F0706122B1460D360103FABA
:100AF00006F6314300F00046B6F1004F02D1034E36
:100B0000F16101E0014E7160F0BD000000000140A4
:100B10000246002093680B400BB1012000E000204A
:100B20007047416170470161704700002DE9FF4F38
:100B300083B0834691469A46002400250020029007
:100B400001905F46DDF81080002661E0012000EB97
:100B5000460019F80000A13819F81610A1395E22D4
:100B600002FB010080B2019000244AE000251EE053
:100B70000198400100EB44002949085C029002986A
:100B8000A84000F0800040B108EB040291B27A194D
:100B900090B2109A03F046FB07E008EB040291B212
:100BA0007A1990B2119A03F03DFB681C85B2082DAA
:100BB000DEDB002521E00198400100EB4400401CF1
:100BC0001749085C02900298A84000F0800048B1E4
:100BD00008EB040291B27A19083290B2109A03F02D
:100BE00021FB08E008EB040291B27A19083290B2B6
:100BF000119A03F017FB681C85B2082DDBDB601C23
:100C000084B2102CB2DB07F1100087B2701C86B2E0
:100C10000AEBDA71B6EB610F98DB07B0BDE8F08F35
:100C2000C84D00082DE9FE4F82468B4691469846F6
:100C3000C34511D1CA4501DC544601E04C46D146BA
:100C400006E0594620460C9A03F0ECFA601C84B288
:100C50004C45F6DDBDE8FE8FC34503DDABEB080078
:100C600087B202E0A8EB0B0087B2CA4510D1C3459A
:100C700001DC5D4601E04546D84606E0294650467F
:100C80000C9A03F0CFFA681C85B24545F6DDE1E722
:100C9000CA4507DDAAEB090086B24C46D146454657
:100CA000D84604E0A9EB0A0086B254465D46BE422F
:100CB00011D10DE0601C84B2454502DD681E85B28D
:100CC00001E0681C85B2294620460C9A03F0AAFA76
:100CD0004C45EFDDA2E0294620460C9A03F0A2FA2B
:100CE00045454DDABE4225DDC6EB470000B2029015
:100CF000780000B20190B81B400000B2009016E0EE
:100D0000601C84B20298002805DADDE9011008446D
:100D100000B2029006E0681C85B20099029808446F
:100D200000B20290294620460C9A03F07BFA4C450B
:100D3000E6DB73E0C7EB460000B20290700000B241
:100D40000190F01B400000B2009016E0681C85B2D4
:100D50000298002805DADDE90110084400B202908B
:100D600006E0601C84B200990298084400B2029028
:100D7000294620460C9A03F055FA4545E6DB4DE03E
:100D8000BE4225DDC6EB470000B20290780000B2FB
:100D90000190B81B400000B2009016E0601C84B2C5
:100DA0000298002805DADDE90110084400B202903B
:100DB00006E0681E85B200990298084400B20290CD
:100DC000294620460C9A03F02DFA4C45E6DB25E037
:100DD000C7EB460000B20290700000B20190F01B19
:100DE000400000B2009016E0681E85B2029800280C
:100DF00005DADDE90110084400B2029006E0601C4B
:100E000084B200990298084400B202902946204614
:100E10000C9A03F007FAA845E6DB00BF00BF19E70C
:100E20001CB54FF6FF7002F031FB4FF6FF704FF428
:100E300078410E235BA2CDE9001000216E20FFF760
:100E400075FE4FF6FF701F2105235AA2CDE9001051
:100E50001421002000F016FA4FF6FF701F21242302
:100E600056A2CDE9001028212020FFF75FFE4FF6A3
:100E7000FF701F2128235BA2CDE900103C21002038
:100E8000FFF754FE4FF6FF701F21262360A2CDE925
:100E9000001050210020FFF749FE4FF6FF701F2180
:100EA000052365A2CDE900106421002000F0EAF9D5
:100EB0004FF6FF701F21242361A2CDE90010782195
:100EC0002020FFF733FE4FF6FF701F21202366A27C
:100ED000CDE900108C210020FFF728FE4FF6FF70AF
:100EE0001F21042369A2CDE90010CC213220FFF795
:100EF0001DFE4FF6FF701F2101232FA2CDE9001028
:100F0000CC21522000F0BEF94FF6FF701F210423C0
:100F100060A2CDE90010DE213220FFF707FE4FF678
:100F2000FF701F21012324A2CDE90010DE215220F1
:100F300000F0A8F94FF6FF701F21042357A2CDE956
:100F40000010CC219620FFF7F1FD4FF6FF701F2116
:100F5000012319A2CDE90010CC21B62000F092F9AE
:100F60004FF6FF701F2104234EA2CDE90010DE21B1
:100F70009620FFF7DBFD4FF6FF701F2101230EA225
:100F8000CDE90010DE21B62000F07CF94FF6E070CC
:100F90001F21082345A2CDE90010DC21FC20FFF72A
:100FA000C5FD1CBDB1E4C1BFC5E7CEEDB4F2D2A909
:100FB000B3B50000546970733A000000B1BECFB5FC
:100FC000CDB3CEAAA1B6BBF9D3DACDBCCFF1CAB6A8
:100FD000B1F0B5C4B8CCE9D9BAECD6A9D6EBBCEC23
:100FE00000000000B2E2B7C0D6CECFB5CDB3A1B7F6
:100FF000CFC2CEBBBBFAB2BFB7D6A3ACCDEAB3C9A2
:10100000C5A9D2A9B5C4BEABC8B7C5E700000000EA
:10101000C8F7A1A3B4AEBFDAA1A2C0B6D1C0A1A245
:10102000CEDECFDFC8FDD6D6CDA8D0C5B7BDCABDF0
:10103000BFC9D1A1A1A3000048656C703A000000AF
:10104000B0B4B0B4BCFCD2BBC9E8B6A8D6B5D4F62F
:10105000BCD3A3ACB0B4B0B4BCFCB6FEC9E8B6A86F
:10106000D6B5BCF500000000C9D9A1A3B4A5C3FE44
:10107000D3D2CFC2BDC7B0B4C5A5BDF8C8EBC4A319
:10108000D0CDBDE7C3E6A1A300000000D1B9C1A641
:1010900000000000C1F7C1BF00000000C9E8B6A809
:1010A00000000000CAE4B3F600000000B2A8D0CEF1
:1010B000BDE7C3E6000000000EB5002002F0E6F92F
:1010C0004FF6FF701F21042362A2CDE90010CC214E
:1010D0003220FFF72BFD4FF6FF701F2101235FA287
:1010E000CDE90010CC21522000F0CCF84FF6FF7073
:1010F0001F2104235AA2CDE90010DE213220FFF780
:1011000015FD4FF6FF701F21012354A2CDE90010F9
:10111000DE21522000F0B6F84FF6FF701F210423A5
:1011200051A2CDE90010CC219620FFF7FFFC4FF62D
:10113000FF701F21012349A2CDE90010CC21B62068
:1011400000F0A0F84FF6FF701F21042348A2CDE95C
:101150000010DE219620FFF7E9FC4FF6FF701F21FB
:1011600001233EA2CDE90010DE21B62000F08AF86E
:1011700000204FF4FC61CDE9000103460422C021A8
:101180000290022000F09AF800204FF4FC61CDE9B3
:10119000000164230422A7210290022000F08EF8AF
:1011A00000204FF4FC61CDE90001C82304228E2108
:1011B0000290022000F082F800204FF4FC61CDE99B
:1011C00000014FF49673042275210290022000F072
:1011D00075F800204FF4FC61CDE900014FF4C873AD
:1011E00004225C210290022000F068F800204FF4F5
:1011F000FC61CDE900014FF4FA730422432102900F
:10120000022000F05BF800204FF4FC61CDE9000102
:101210004FF4167304222A210290022000F04EF8A7
:1012200000204FF4FC61CDE900014FF42F7304223C
:1012300011210290022000F041F84FF6E0701F21CA
:1012400008230DA2CDE90010DC21FC20FFF76EFC85
:101250000EBD0000D1B9C1A6000000003A00000098
:10126000C1F7C1BF00000000C9E8B6A80000000037
:10127000CAE4B3F600000000CCE1CABEBDE7C3E695
:10128000000000002DE9F84F0646884614461F4628
:10129000DDE90A9A00250DE0CDF800A014F8012B35
:1012A000082101FB056188B24B46414602F050FF20
:1012B000681CC5B2BD42EFDBBDE8F88F2DE9FF4FDA
:1012C00081B0074615469846DDF840A0DDF8389015
:1012D0000126002404E006EB86004600601CC4B230
:1012E000681EA042F7DCB9F1000F0BD0A5EB090195
:1012F00007EBC10188B2CDF800A02E220F9B029906
:1013000002F026FF002434E0A5EB0900401EA042B5
:1013100016DBB8FBF6F00A21B0FBF1F201FB12007C
:1013200000F1300B07EBC40188B2CDF800A05A469B
:101330000F9B029902F00CFF0A20B6FBF0F616E0B4
:10134000B8FBF6F00A21B0FBF1F201FB120000F14C
:10135000300B07EBC401083188B2CDF800A05A4623
:101360000F9B029902F0F4FE0A20B6FBF0F6601C17
:10137000C4B22846A042C7DC05B0BDE8F08F00002B
:1013800010B504460723012221460948FFF766F8F5
:1013900001210748FFF7C3F800BF02210448FFF707
:1013A00021F80028F9D00248FFF718F810BD000016
:1013B000002401402DE9FF4107464FF001080826AF
:1013C00000200090019002900390002409E038462C
:1013D000FFF7D6FF2DF81400012001F0ABFF601CD1
:1013E000C4B2B442F3DB1BE04FF00008002414E069
:1013F0003DF81410601C3DF8100081420BDD3DF8F3
:101400001450601C3DF810002DF81400601C2DF8DD
:1014100010504FF00108601CC4B2701EA042E7DCFF
:10142000B8F1000FE0D10025022405E03DF81400DA
:10143000284485B2601CC4B2062CF7DBA81004B0A7
:10144000BDE8F0812DE9F04106460F460024002555
:1014500000BF11E000250CE005EB850291B204EB22
:10146000C40202EB0412324490B23A4602F0DAFEB1
:101470006D1C292DF0DB641C0B2CEBDB002411E030
:1014800000250CE004EBC40202EB041291B205EB60
:101490008502324490B23A4602F0C4FE6D1C332DF0
:1014A000F0DB641C092CEBDBBDE8F08100BFFEE73C
:1014B0007047000008B50121502000F0F9F9012023
:1014C000ADF8000003208DF8020048208DF80300DD
:1014D00069460648FFF749FA4FF40050ADF800009E
:1014E00069460348FFF741FA08BD000000180140B3
:1014F0000010014010B504462CB1642001F01AFF21
:1015000001201A49087019480078F8B101211848DB
:10151000FFF7FEFA28B14FF400511648FFF7F8FA2A
:10152000A0B90A2001F006FF00201049087001212F
:101530000F48FFF7EDFA08B9012010BD4FF4005134
:101540000C48FFF7E5FA78B90220F6E701210848D0
:10155000FFF7DEFA012807D141030648FFF7D8FA62
:10156000012801D1014908700020E6E76800002049
:10157000001801400010014008B50121080200F0E8
:1015800067F9012140F2E11000F092F94CF233705A
:10159000ADF8000003208DF8020018208DF803003C
:1015A00069460D48FFF7E1F94FF68070ADF800008D
:1015B00069460A48FFF7D9F90120ADF800006946ED
:1015C0000748FFF7D2F94FF48050ADF800006946A4
:1015D0000448FFF7CAF908BD001401400018014093
:1015E000001C01400020014000B59DB0012108020F
:1015F00000F02EF901200790002008900F2009909C
:1016000000200A900B900C900D900220009000207A
:101610000190052002900020039004900590069010
:1016200006200E9000200F901090102011900020A6
:10163000129014901390159016904FF480501790BC
:10164000002018904FF48040199000201A9007A8AD
:101650001B90CDF870D00EA8FFF706F901210620E7
:10166000FFF7E8F81DB000BD08B50121042000F027
:101670001FF90220ADF8000003208DF802001020B1
:101680008DF8030069460448FFF76FF9022102480C
:10169000FFF749FA08BD00000008014001464FF07D
:1016A000D8400180408870474FF0D841488070474B
:1016B00022204FF0D841088070474FF0D842108068
:1016C0005180704710B5FFF7CFFFFFF755FFFFF7C9
:1016D0008BFF10BD08B501214FF4907000F0E8F8C1
:1016E0004FF40050ADF8000010208DF803000320E7
:1016F0008DF8020069460B48FFF737F94FF4804038
:10170000ADF8000069460848FFF72FF94FF4005183
:101710000448FFF706FA4FF480410348FFF701FA47
:1017200008BD0000001401400020014000BFFEE79A
:1017300010B50348808C81B2024801F09AF910BDBF
:10174000AC000020000400400848406A42F2283102
:10175000884203DD08460549486206E00348406ABE
:10176000002802DA0020014948627047AC000020DE
:101770007047000070B5002100230F22C47804B325
:10178000154C246804F4E064C4F5E064210AC1F156
:101790000403CA40447804FA03F1847814402143D6
:1017A00009010E4C0678A155047804F01F050124A8
:1017B000AC4005786D11AD0005F1E025C5F800419C
:1017C00009E0047804F01F050124AC40044D0678BC
:1017D000761145F8264070BD0CED00E000E400E015
:1017E00080E100E002490143024A116070470000B5
:1017F0000000FA050CED00E010B502F02DFEFFF739
:1018000057FE02F0CDFD10BD0748084908600848A2
:10181000486000208860C860086148618861C861CC
:1018200008624862704700000000D040AC00002011
:10183000CDCC4C3F7047000001460020034A506861
:1018400020F4404008435060704700000010024000
:1018500029B1064A52690243044B5A6104E0034A23
:1018600052698243014B5A617047000000100240E8
:1018700029B1064AD2690243044BDA6104E0034A03
:10188000D2698243014BDA617047000000100240C8
:1018900029B1064A12690243044B1A6104E0034A63
:1018A00012698243014B1A61704700000010024028
:1018B00029B1064A92690243044B9A6104E0034A43
:1018C00092698243014B9A61704700000010024008
:1018D00029B1064AD2680243044BDA6004E0034AA5
:1018E000D2688243014BDA6070470000001002406A
:1018F00030B500210022002400232D4D6D6805F035
:101900000C0121B1042905D0082923D105E0294D76
:10191000056022E0274D05601FE0254D6D6805F448
:101920007012234D6D6805F48034022505EB924258
:101930001CB9214D554305600BE01D4D6D6805F444
:1019400000351DB11C4D5543056002E0194D55434E
:10195000056002E0174D056000BF00BF144D6D68C3
:1019600005F0F0010909154D6B5C0568DD40456027
:101970000F4D6D6805F4E061090A104D6B5C456818
:10198000DD4085600A4D6D6805F46051C90A0B4D54
:101990006B5C4568DD40C560054D6D6805F44041F0
:1019A000890B074D6B5CC568B5FBF3F5056130BD70
:1019B0000010024000127A0000093D00850000205E
:1019C0009500002010B50146064B1A8802EBD27331
:1019D0008C8CA4EB6300034B1A8802EBD2735B1070
:1019E0008B8410BD4400002008B501214020FFF782
:1019F0005FFF0220ADF8000003208DF802001020E8
:101A00008DF8030069460448FEF7AFFF0221024843
:101A1000FFF787F808BD00000018014021B10288D7
:101A200042F04002028004E002884FF6BF731A4081
:101A30000280704700B587B001210820FFF738FF0A
:101A400001218803FFF714FF4FF42040ADF8180080
:101A500003208DF81A0018208DF81B0006A92448D1
:101A6000FEF783FF4FF48040ADF8180003208DF897
:101A70001A0048208DF81B0006A91D48FEF775FFC7
:101A80004FF48050ADF8180003208DF81A00102094
:101A90008DF81B0006A91648FEF767FF00211548C0
:101AA000FFF7BCFF0020ADF804004FF48270ADF8E2
:101AB00006000020ADF80800ADF80A00ADF80C00F3
:101AC0004FF40070ADF80E002820ADF81000002093
:101AD000ADF812000720ADF8140001A9054800F088
:101AE00019F801210348FFF799FF07B000BD000076
:101AF000000C0140003800400246002013890B40D2
:101B00000BB1012000E00020704701468889704732
:101B10008181704710B50022028802F441520B887F
:101B20004C8823438C882343CC8823430C8923434C
:101B30004C8923438C892343CC8923431A43028055
:101B4000838B4FF2FF74234083830B8A038210BD83
:101B500070B50446002500BF02210B48FFF7CCFFFB
:101B60000028F9D021460848FFF7D2FF00BF012125
:101B70000548FFF7C1FF0028F9D00348FFF7C5FF6C
:101B8000C5B2284670BD0000003800407047000014
:101B900070B51B48008802F035FE06460121FEF7AD
:101BA000BBFD1848008802F02DFE06460221FEF714
:101BB000B3FD1549C86902F00DFE06460321FEF784
:101BC000ABFD1149486A02F005FE06460421FEF706
:101BD000A3FD0420FEF754FD054600240DE00B484C
:101BE000015D0B4801F07DFA00BF4021084801F07B
:101BF000ABF90128F9D1601CC4B2AC42EFDB70BD77
:101C00004E00002050000020AC0000200002002008
:101C100000380140F8B523257648007818B93220FD
:101C20007449087004E073480078401E71490870D8
:101C300070480078441C3CE000206F4F661C009008
:101C4000BE5DC6F1C806B3B26A4E3678A61B06EB77
:101C500086062E44B2B23E46365DC6F1C806B1B223
:101C6000644E3678A61B761E06EB86062E44B0B26E
:101C7000FEF7D8FF0020614F661C0090BE5DC6F1E4
:101C8000C806B3B25B4E3678A61B06EB86062E441A
:101C9000B2B23E46365DC6F1C806B1B2554E367890
:101CA000A61B761E06EB86062E44B0B2FEF7BAFFE0
:101CB000641C322CC0DB4F48007831283DDC00200A
:101CC0004D4E00903678C6F1C806B3B2494E36780C
:101CD000C6F1320606EB86062E44B2B2464E96F8A0
:101CE0003260C6F1C806B1B2424E3678C6F131064E
:101CF00006EB86062E44B0B2FEF794FF00203F4E5E
:101D000000903678C6F1C806B3B23A4E3678C6F1BE
:101D1000320606EB86062E44B2B2384E96F8326092
:101D2000C6F1C806B1B2334E3678C6F1310606EBBD
:101D300086062E44B0B2FEF775FF002442E0002074
:101D40002D4F661C0090BE5DC6F1C806B3B204F10B
:101D50003306284F3F78F61B06EB86062E44B2B2B8
:101D6000254E365DC6F1C806B1B204F13206214FE8
:101D70003F78F61B06EB86062E44B0B2FEF752FF04
:101D800000201E4F661C0090BE5DC6F1C806B3B2AF
:101D900004F13306174F3F78F61B06EB86062E44F8
:101DA000B2B2164E365DC6F1C806B1B204F13206C3
:101DB000104F3F78F61B06EB86062E44B0B2FEF7B6
:101DC00031FF641C0B4800788442B8DB0948007876
:101DD000401CC0B207490870332801D100200870A8
:101DE0004FF4FC612846FFF72DFB284601F080F9EF
:101DF000F8BD0000840000202004002053040020CF
:101E000010B500F001F810BD0CB500200190009055
:101E10003348006840F480303149086000BF3048E2
:101E2000006800F4003000900198401C0190009878
:101E300018B90198B0F5A06FF1D12948006800F4F5
:101E4000003010B10120009001E0002000900098C7
:101E5000012843D12348006840F010002149086060
:101E60000846006820F0030008600846006840F05B
:101E7000020008601A4840681949486008464068EE
:101E800048600846406840F4806048600846406802
:101E900020F47C1048600846406840F4E810486030
:101EA0000846006840F08070086000BF0C48006879
:101EB00000F000700028F9D00948406820F00300C5
:101EC000074948600846406840F00200486000BF8B
:101ED0000348406800F00C000828F9D10CBD000050
:101EE0000010024000200240002100E0491C814215
:101EF000FCD37047042808D14FF0E021096941F074
:101F000004014FF0E022116107E04FF0E021096980
:101F100021F004014FF0E02211617047704700008A
:101F200010B51348006840F00100114908600846E8
:101F30004068104908400E494860084600680E494C
:101F400008400B4908600846006820F480200860BB
:101F50000846406820F4FE0048604FF41F00886087
:101F6000FFF74EFF4FF000600449086010BD00000D
:101F7000001002400000FFF8FFFFF6FE08ED00E051
:101F8000F0B50C46154600220021068C4FF6FE7770
:101F90003E400684028B018C4FF60C7632407E1C4C
:101FA00006EA03162E433243104EB0420ED0104EB6
:101FB000B0420BD0B0F1804F08D00E4EB04205D0E9
:101FC0000D4EB04202D00D4EB04206D14FF6FD7616
:101FD000314044F00106314305E04FF6F5763140DB
:101FE00044F00106314302830184F0BD002C01401E
:101FF000003401400004004000080040000C004094
:10200000F0B50C461546002200210026078C4FF63D
:10201000EF7C07EA0C070784028B018C4FF6FF77F1
:1020200007EA041640F6FF473A404FF6FF7707EA03
:1020300003373A434FF6FF7707EA05273A43114F34
:10204000B8420ED0104FB8420BD0B0F1804F08D03C
:102050000E4FB84205D00E4FB84202D00D4FB842D5
:1020600006D14FF6DF77394046F01007394305E0D7
:102070004FF65F77394044F01007394302830184FB
:10208000F0BD0000002C014000340140000400407D
:1020900000080040000C0040F0B50C461546002238
:1020A00000210026078C4FF6FF6C07EA0C07078417
:1020B000828B018C4FF6FF7707EA04264FF60C77E8
:1020C0003A404FF6FF7707EA03172F433A43114F81
:1020D000B8420ED0104FB8420BD0B0F1804F08D0AC
:1020E0000E4FB84205D00E4FB84202D00D4FB84245
:1020F00006D14FF6FF57394046F48077394305E063
:102100004FF2FF57394044F480773943828301848A
:10211000F0BD0000002C01400034014000040040EC
:1021200000080040000C0040F0B50C4615460022A7
:1021300000210026078C4EF6FF7C07EA0C07078477
:10214000828B018C4FF6FF7707EA043640F6FF4793
:102150003A404FF6FF7707EA05273A434FF6FF77F5
:1021600007EA03373A43114FB8420ED0104FB84236
:102170000BD0B0F1804F08D00E4FB84205D00E4FB3
:10218000B84202D00D4FB84206D14DF6FF77394024
:1021900046F48057394305E047F6FF57394044F489
:1021A0008057394382830184F0BD0000002C014038
:1021B000003401400004004000080040000C0040D2
:1021C00030B587B0044601210846FFF751FB0121D5
:1021D0000C20FFF76DFB01210846FFF769FB012189
:1021E0002A48FEF74DFC4FF40040ADF800000420F3
:1021F0008DF8030003208DF8020069462448FEF79D
:10220000B4FB0820ADF8000069462248FEF7ADFB9C
:1022100021480480ADF814400020ADF81000ADF85E
:102220001600ADF8120004A94FF0804000F058FCF1
:1022300000231A4603214FF0804000F0EAFA01A87B
:1022400000F080FB0A20ADF80C0001A9400700F067
:1022500023FB0121880700F0BBFA0121880700F069
:10226000BAFA01221146900700F075FB254604EBEF
:10227000D570C0F34F014FF0804000F003FC012106
:10228000880700F0ABFA07B030BD0000000318006B
:1022900000080140000C01404400002010B501215D
:1022A000880700F0E7FA40B10121880700F093FAAF
:1022B00002480088401C0149088010BD42000020EF
:1022C00010B50221594800F0D5FA28B358480068E3
:1022D000401C5749086057480078F0B10020554924
:1022E0000870524800F0C3FA534908800846008835
:1022F00052490988401A4E4908600846006800287B
:1023000006DA084600684E490988084448490860CA
:102310000021464800F074FB0BE00120454908709D
:10232000424800F0A4FA4549088002213F4800F0E5
:1023300067FB04213D4800F09DFA10B34148007846
:1023400098B100203F490870384800F090FA3E49A3
:102350000880084600883D490988401A3C490860C1
:102360000021324800F05EFB0BE001203549087087
:102370002E4800F07CFA3549088002212B4800F0F5
:1023800051FB0821294800F075FA10B33148007854
:1023900098B100202F490870244800F068FA2E49AF
:1023A0000880084600882D490988401A2C49086091
:1023B00000211E4800F043FB0BE001202549087076
:1023C0001A4800F054FA254908800221174800F005
:1023D00036FB1021154800F04DFA10B32148007863
:1023E00098B100201F490870104800F040FA1E49BB
:1023F0000880084600881D490988401A1C49086061
:1024000000210A4800F028FB0BE001201549087064
:10241000064800F02CFA154908800221034800F014
:102420001BFB1F21014800F0D6F910BD000400403D
:102430001C0000202C00002034000020320000206E
:10244000300000202D000020380000203600002041
:10245000200000202E0000203C0000203A00002038
:10246000240000202F000020400000203E0000201B
:102470002800002030B589B005460C460121022015
:10248000FFF7F6F901211020FFF712FA01210846A3
:10249000FFF70EFA01212E48FEF7F2FA4020ADF8C0
:1024A000200018208DF8230003208DF8220008A9B1
:1024B0002848FEF75AFA4FF46070ADF8200010205B
:1024C0008DF8230008A92348FEF74FFA8021214800
:1024D000FEF727FB4FF480711E48FEF724FB4FF4F4
:1024E00000711C48FEF71FFBADF81850ADF8144002
:1024F0000020ADF81A00ADF8160005A9164800F046
:10250000EFFA7020ADF804000120ADF806000020BD
:10251000ADF80A000220ADF80C0001A90E4800F049
:1025200023FA01210C4800F065F908210A4800F05F
:1025300070FA0121084800F03FF90121064800F037
:102540004DF90021044800F094FA09B030BD0000B4
:10255000000C1A00001001400004004010B50221D8
:10256000214800F087F950B11F4800F073F91F4966
:102570000988084484B221461B4800F07AFA0421F5
:10258000194800F077F950B1174800F066F918497A
:102590000988084484B22146134800F06CFA0821E7
:1025A000114800F067F950B10F4800F059F911498E
:1025B0000988084484B221460B4800F05EFA1021D5
:1025C000094800F057F950B1074800F04CF90A49A2
:1025D0000988084484B22146034800F050FA1E21BD
:1025E000014800F0F8F810BD000800404600002047
:1025F000480000204A0000204C0000200EB50121B8
:102600004C4800F037F900287DD000F0A1FB4FF0D6
:102610008040FFF7D7F9484908600846006800285D
:1026200010DA4FF6FF700021012344A2CDE900101B
:10263000DC210020FEF726FE3F48006840423E496C
:1026400008600AE04FF6FF70002101233CA2CDE9AB
:102650000010DC210020FEF715FE4FF6FF70002170
:102660000091CDE9011034480522DC2103680820DF
:10267000FEF724FE0220FEF79DFE324908804FF649
:10268000FF7000210091CDE901102E48038804223B
:10269000CC215A20FEF712FE0320FEF78BFE2A49BA
:1026A00008804FF6FF7000210091CDE90110264807
:1026B00003880422DE215A20FEF700FE1E4800682F
:1026C000B0F5487F03DD4FF448701B4908601A4895
:1026D00000681E490862FFF78FF8FFF735F8FFF72B
:1026E00027F84FF6FF7000210091CDE9011017483F
:1026F0000422CC21C369BE20FEF7E0FD4FF6FF7037
:102700000021009100E013E0CDE901100F48042200
:10271000DE21436ABE20FEF7D1FDFFF739FA0C48EF
:10272000007808B1FFF776FA0121024800F053F86B
:102730000EBD0000000C0040540000202D000000E1
:10274000200000004E00002050000020AC000020BF
:10275000040000207FB505460C4601210820FFF744
:1027600087F8ADF80850ADF804400020ADF80A0035
:10277000ADF8060001A90F4800F0B2F901210D489B
:1027800000F029F8012211460A4800F0E4F832204E
:102790008DF8000001208DF801008DF802008DF801
:1027A00003006846FEF7E6FF0121024800F016F834
:1027B0007FBD0000000C004021B1028842F0800281
:1027C000028004E002884FF67F731A40028070474F
:1027D000CA4302827047CA430282704721B102880D
:1027E00042F00102028004E002884FF6FE731A40B4
:1027F0000280704731B1B0F8442042F40042A0F8A2
:10280000442005E0B0F84420C2F30E02A0F84420B2
:102810007047F0B50C4615461E46002100220023E5
:102820000189028B038C4FF6F877394021434FF62C
:10283000FC473A4040F201173A434FF6DD773B4000
:102840004FF6FF7707EA06172F433B4301810283C8
:102850000384F0BD0146888E70470146088F70479B
:102860000146888F70470146B1F840007047014625
:10287000888C704730B50246002000230024158A5A
:1028800005EA0103958905EA010413B10CB10120A1
:1028900000E0002030BD000070B505460C4624481D
:1028A00085420ED0234885420BD0B5F1804F08D029
:1028B0002148854205D02148854202D020488542E2
:1028C00000D100E000BF208850B92389A288618828
:1028D0002846FFF755FBE188284600F0D5F825E0AB
:1028E000208804280AD12389A28861882846FFF716
:1028F00087FBE188284600F0D0F817E020880828F8
:102900000AD12389A28861882846FFF7C5FBE188A0
:10291000284600F0CFF809E02389A288618828467C
:10292000FFF702FCE188284600F0CDF870BD0000FA
:10293000002C014000340140000400400008004029
:10294000000C004000210180418001218180002194
:10295000C180018170471AB183890B43838102E0F2
:1029600083898B438381704770B500240022002344
:10297000058C4FF6FE7635400584028C8388048BE7
:102980004FF68F752C40B51E2C400D882C43751EBC
:102990002A400D892A434D882A43144DA8420BD062
:1029A000134DA84208D0134DA84205D0124DA8429D
:1029B00002D0124DA84213D14FF6F7752A404D8927
:1029C0002A434FF6FB752A408D882A434FF6FF6550
:1029D0002B404FF6FF552B408D892B43CD892B4340
:1029E00083800483CD888586028470BD002C0140DD
:1029F00000340140004001400044014000480140D3
:102A00000A460021018C4FF6FD73194011430184E1
:102A100070470A460021018B4FF6F77319401143A6
:102A2000018370470A460021018C4FF6DF7319407D
:102A30004FF6FF7303EA02131943018470470A46F5
:102A40000021018C4FF6FF5319404FF6FF7303EA44
:102A500002231943018470470A460021018C4DF678
:102A6000FF7319404FF6FF7303EA023319430184E1
:102A70007047818670470187704781877047A0F84B
:102A80004010704781847047028B4FF6F3731A40F1
:102A90000283028B0A4302837047028B4FF2FF339B
:102AA0001A400283028B4FF6FF7303EA01231A4395
:102AB00002837047828B4FF6F3731A408283828BB6
:102AC0000A4382837047828B4FF2FF331A4082831E
:102AD000828B4FF6FF7303EA01231A438283704708
:102AE000002202881D4B98420ED01D4B98420BD0FD
:102AF000B0F1804F08D01B4B984205D01A4B98423A
:102B000002D01A4B984204D14FF68F731A404B886B
:102B10001A43174B984207D0164B984204D04FF6F1
:102B2000FF431A40CB881A4302808B8883850B8829
:102B300003850A4B98420BD0094B984208D00E4BA4
:102B4000984205D00D4B984202D00D4B984201D1CE
:102B50000B7A03860123838270470000002C01401A
:102B6000003401400004004000080040000C004018
:102B700000100040001400400040014000440140AB
:102B8000004801402DE9F04186B0002400251421C1
:102B900001A8FDF73CFB0027A04606E000F084F802
:102BA00001A921F81500681CC5B20A2DF6DB2ED14B
:102BB00000BF0026002418E001A830F8141001AA74
:102BC000601C32F8100081420DDD01A9601C31F853
:102BD000107001A830F81410601C22F8101001A821
:102BE00020F814700126601CC4B2681EA042E3DC09
:102BF000002EDED1BDF80A00BDF80C100844BDF867
:102C00000E100844032190FBF1F01FFA80F84046B3
:102C100006B0BDE8F0812DE9F04186B00024002522
:102C2000142101A8FDF7F3FA0027A04606E000F002
:102C300065F801A921F81500681CC5B20A2DF6DB5C
:102C40002ED100BF0026002418E001A830F814108F
:102C500001AA601C32F8100081420DDD01A9601C40
:102C600031F8107001A830F81410601C22F8101010
:102C700001A820F814700126601CC4B2681EA0428E
:102C8000E3DC002EDED1BDF80A00BDF80C100844CC
:102C9000BDF80E100844032190FBF1F01FFA80F8F4
:102CA000404606B0BDE8F08110B500244FF48051D5
:102CB0001148FDF736FF0A20FFF716F99020FEF7BE
:102CC00047FF0A20FFF710F90020FEF741FF0446F6
:102CD0004FF6FF7000EA04240020FEF739FF20447D
:102CE00084B20A20FFF700F94FF480510248FDF743
:102CF0001AFFE410204610BD000C014010B500245E
:102D00004FF480511148FDF70CFF0A20FFF7ECF853
:102D1000D020FEF71DFF0A20FFF7E6F80020FEF79F
:102D200017FF04464FF6FF7000EA04240020FEF768
:102D30000FFF204484B20A20FFF7D6F84FF48051E9
:102D40000248FDF7F0FEE410204610BD000C0140E3
:102D500010B50A48007800B110BDFFF75CFF40F6DF
:102D60006661884207DDFFF70DFFB0F5486F02DDB1
:102D700001200249087000BFEEE700008200002039
:102D800010B540F22551364800F0EBF8002865D028
:102D9000334800F0A1F9C4B22A2C15D100203149E2
:102DA00008703148007831490860084600680828F2
:102DB00006DA2F48096850F821002E49C86103E05F
:102DC00040F2EE202B49C8612648007868B12648B9
:102DD000007800EB80004006000E23490870A4F143
:102DE00030000978084420490870232C05D10120BF
:102DF0001C49087000201C4908701F48008800F416
:102E0000004058BB1C48008800F4804060B10A2C88
:102E100003D000201849088020E01748008840F4BB
:102E200000401549088019E00D2C06D11248008891
:102E300040F480401049088010E00F480088C0F33B
:102E40000D000E490C540C480088401C0A490880AB
:102E500008460088C72801DD0020088010BD00005A
:102E600000380140A7000020A8000020000000203A
:102E700048A40408AC000020A40000208604002020
:102E800010B540F22551104800F06BF8D8B10F484A
:102E900000880F490988884202DB00200B4908801E
:102EA000094800F019F90B490870084601780748ED
:102EB00002880088401C054B188007488154002177
:102EC0001A461288815410BD004400407000002052
:102ED0007C0000207A000020D400002010B540F2D1
:102EE0002551104800F03DF8C8B10E4800F0F4F844
:102EF0000D490E4A127888540C48007820B90846CB
:102F00000078552800D010BD08480078401C0749BB
:102F10000870084600780B2801D10020087000BF17
:102F2000F1E70000004800404E050020A600002008
:102F300021B1828942F40052828104E082894DF6F7
:102F4000FF731A408281704702460020B1F5007F6E
:102F500000D100BF13880B400BB1012000E000201E
:102F6000704770B50246002400230025002040F67B
:102F70006A16B14200D100BFC1F3421501F01F0330
:102F8000012606FA03F3012D02D19689334006E0AB
:102F9000022D02D1168A334001E0968A33400C128A
:102FA000012606FA04F41688344013B10CB101204E
:102FB00000E0002070BDF0B5034600240026002587
:102FC000002040F66A17B94200D100BF1846C1F38D
:102FD000421401F01F06012707FA06F5012C01D162
:102FE0000C3004E0022C01D1103000E014301AB192
:102FF00007682F43076002E00768AF430760F0BD32
:103000002DE9F04786B005460E460024A24600BFD3
:10301000A1460027B08900B100BF2F462C8A4CF68C
:10302000FF700440F08804432C82AC894EF6F31004
:103030000440B08831890843718908430443AC8156
:10304000AC8A4FF6FF400440B0890443AC8201A82B
:10305000FEF74EFC1F48874202D1DDF810A001E0C8
:10306000DDF80CA0A88900F4004040B10AEBCA00CA
:1030700000EB0A1031684900B0FBF1F807E00AEBF9
:10308000CA0000EB0A1031688900B0FBF1F8642037
:10309000B8FBF0F004012009642101FB1089A88924
:1030A00000F4004040B1322000EBC900B0FBF1F069
:1030B00000F00700044308E0322000EB091064210F
:1030C000B0FBF1F000F00F0004432C8106B0BDE826
:1030D000F08700000038014001468888C0F30800EE
:1030E0007047C1F308028280704700BFFEE700000E
:1030F000F8B505467849C869C11700EB9171C1F36D
:103100008701764A764B1B78D1547349086AC117F8
:1031100000EB9171C1F38701724A714B1B78D15456
:103120006F480078441C3DE04FF6E0706B4F661C22
:103130000090BE5DC6F1C806B3B2694E3678A61BD4
:1031400006EB86062E44B2B23E46365DC6F1C80690
:10315000B1B2634E3678A61B761E06EB86062E4469
:10316000B0B2FDF75FFD1F205E4F661C0090BE5D94
:10317000C6F1C806B3B25A4E3678A61B06EB8606D1
:103180002E44B2B23E46365DC6F1C806B1B2544EC8
:103190003678A61B761E06EB86062E44B0B2FDF7E7
:1031A00041FD641C322CBFDB4D48007831283EDCE9
:1031B0004FF6E070494E00903678C6F1C806B3B2BB
:1031C000474E3678C6F1320606EB86062E44B2B27A
:1031D000424E96F83260C6F1C806B1B2404E36781B
:1031E000C6F1310606EB86062E44B0B2FDF71AFD95
:1031F0001F203C4E00903678C6F1C806B3B2384E58
:103200003678C6F1320606EB86062E44B2B2354E4B
:1032100096F83260C6F1C806B1B2314E3678C6F1C2
:10322000310606EB86062E44B0B2FDF7FBFC002407
:1032300043E04FF6E070294F661C0090BE5DC6F17A
:10324000C806B3B204F13306254F3F78F61B06EBF0
:1032500086062E44B2B2214E365DC6F1C806B1B222
:1032600004F132061E4F3F78F61B06EB86062E440D
:10327000B0B2FDF7D7FC1F201A4F661C0090BE5D50
:10328000C6F1C806B3B204F13306154F3F78F61BFA
:1032900006EB86062E44B2B2124E365DC6F1C80663
:1032A000B1B204F132060E4F3F78F61B06EB8606EC
:1032B0002E44B0B2FDF7B6FC641C09480078844285
:1032C000B7DB07480078401CC0B2054908703328B6
:1032D00001D100200870F8BDAC00002020040020BF
:1032E0008400002053040020014600BF7047000006
:1032F00010B56FF00400FEF7FDFD0A4800680A49AA
:10330000B0FBF1F0094908700846007800EB400175
:10331000C1EBC0104FF6FF7101EAC00004490880FC
:1033200010BD00000800002000127A009A00002062
:103330009C0000200146114A12884A434FF0E023C6
:103340005A6100229A611A46126942F001021A611A
:1033500000BF4FF0E022106900F001021AB100F442
:103360008032002AF5D04FF0E022126922F00102EB
:103370004FF0E0231A6100229A6170479C00002000
:1033800070B504460C49204601F050FB00D20A4CAF
:103390000A49204601F04AFA00D2084C0849204662
:1033A00001F0ACF804460749204601F015F905463E
:1033B00001F0F0F9C0B270BD00009643000096C362
:1033C0000000AF430000C84210B52749C868FFF7A6
:1033D000D7FF26490870244A1169D06801F058FBCC
:1033E0000446FFF7CDFF2249087020480078C0EB63
:1033F000C000204901EB80001D49097850F82100E8
:103400001D49086019480078C0EBC0001B4901EB5A
:1034100080001749097850F82100194908601348BD
:103420000078C0EBC000174901EB80001049097813
:1034300050F82100144908600B4908680E490968D2
:1034400001F05CF80849086048680D49096801F016
:1034500055F80549486088680B49096801F04EF83D
:103460000149886010BD0000AC0000205800002019
:10347000590000207C4B00085C000020404C0008F4
:1034800060000020044D00086400002070B5044670
:1034900000250021084600F093FEFEF709F900BF61
:1034A00003E04FF0D84044806D1CB5F5963FF8D34B
:1034B00070BD01B502E00098401E00900098002801
:1034C000F9D108BD10B5FEF7FDF80520FDF777F935
:1034D0000520FDF774F90020FEF7E0F8FE490880AA
:1034E0000846008841F20551884273D14FF40041EB
:1034F000E520FEF7E2F801210020FEF7DEF84FF4A8
:1035000080710120FEF7D9F84FF4E0610220FEF748
:10351000D4F841F230010320FEF7CFF80021042057
:10352000FEF7CBF840F202210820FEF7C6F8002192
:103530000920FEF7C2F800210A20FEF7BEF800219C
:103540000C20FEF7BAF800210D20FEF7B6F8002196
:103550000F20FEF7B2F800211020FEF7AEF8002190
:103560001120FEF7AAF800211220FEF7A6F800218C
:103570001320FEF7A2F84CF2503401E0601E84B232
:10358000002CFBDC41F2B0711020FEF796F83721D9
:103590001120FEF792F84CF2503401E0601E84B224
:1035A000002CFBDC4FF49C711220FEF786F84CF2E5
:1035B000503401E0601E84B2002CFBDC4FF4B851A3
:1035C0001320FEF77AF80D212920FEF776F84CF249
:1035D000503402E0A0E0601E84B2002CFBDC00212D
:1035E0002020FEF76AF800212120FEF766F801216D
:1035F0003020FEF762F840F206613120FEF75DF8F8
:103600004FF441713220FEF758F840F20221332086
:10361000FEF753F840F202213420FEF74EF840F254
:1036200003113520FEF749F840F21D113620FEF750
:1036300044F840F204413720FEF73FF840F20441DD
:103640003820FEF73AF840F204413920FEF735F809
:103650004FF4E0613C20FEF730F840F61F213D209A
:10366000FEF72BF800215020FEF727F8EF2151201C
:10367000FEF723F800215220FEF71FF840F23F1119
:103680005320FEF71AF84FF41C516020FEF715F88E
:1036900001216120FEF711F800216A20FEF70DF8E4
:1036A00010219020FEF709F800219220FEF705F87E
:1036B00003219320FEF701F840F201119520FDF758
:1036C000FCFF00219720FDF7F8FF00219820FDF76F
:1036D000F4FF21210720FDF7F0FF4CF2503401E008
:1036E000601E84B2002CFBDC31210720FDF7E5FFD2
:1036F0004CF2503401E0601E84B2002CFBDC40F23E
:1037000073110720FDF7D9FF4CF2503401E0601E21
:1037100084B2002CFBDCB1E26F48008848F68911C6
:1037200088427CD101210020FDF7C7FF4CF25030C8
:10373000FFF7BFFE4AF6A4010320FDF7BEFF4CF2DF
:103740005030FFF7B6FE00210C20FDF7B6FF4CF21B
:103750005030FFF7AEFE40F60C010D20FDF7ADFF37
:103760004CF25030FFF7A5FE4FF42C510E20FDF720
:10377000A4FF4CF25030FFF79CFEB0211E20FDF755
:103780009CFF4CF25030FFF794FE42F63F3101208F
:10379000FDF793FF4CF25030FFF78BFE4FF4C06102
:1037A0000220FDF78AFF4CF25030FFF782FE002125
:1037B0001020FDF782FF4CF25030FFF77AFE46F200
:1037C00070011120FDF779FF4CF25030FFF771FEC8
:1037D00000210520FDF771FF4CF25030FFF769FE24
:1037E00000210620FDF769FF4CF25030FFF761FE23
:1037F0004EF61C711620FDF760FF4CF25030FFF7BB
:1038000058FE03211720FDF758FF4CF25030FFF708
:1038100050FE40F233210720FDF74FFF00E0DDE0CE
:103820004CF25030FFF745FE00210B20FDF745FF1D
:103830004CF25030FFF73DFE00210F20FDF73DFF19
:103840004CF25030FFF735FE00214120FDF735FFE7
:103850004CF25030FFF72DFE00214220FDF72DFFE6
:103860004CF25030FFF725FE00214820FDF725FFE0
:103870004CF25030FFF71DFE40F23F114920FDF79A
:103880001CFF4CF25030FFF714FE00214A20FDF7D8
:1038900014FF4CF25030FFF70CFE00214B20FDF7D7
:1038A0000CFF4CF25030FFF704FE4FF46F41442000
:1038B000FDF703FF4CF25030FFF7FBFD00214520E0
:1038C000FDF7FBFE4CF25030FFF7F3FD40F23F11E5
:1038D0004620FDF7F2FE01E07E0000204CF2503061
:1038E000FFF7E7FD40F207713020FDF7E6FE4CF2EE
:1038F0005030FFF7DEFD4FF401713120FDF7DDFEA2
:103900004CF25030FFF7D5FD4FF401713220FDF736
:10391000D4FE4CF25030FFF7CCFD40F20251332080
:10392000FDF7CBFE4CF25030FFF7C3FD40F20751DC
:103930003420FDF7C2FE4CF25030FFF7BAFD4FF4D1
:1039400001713520FDF7B9FE4CF25030FFF7B1FDA3
:103950004FF401713620FDF7B0FE4CF25030FFF706
:10396000A8FD40F202513720FDF7A7FE4CF250307F
:10397000FFF79FFD40F202313A20FDF79EFE4CF228
:103980005030FFF796FD40F202313B20FDF795FEE7
:103990004CF25030FFF78DFD00212320FDF78DFE06
:1039A0004CF25030FFF785FD00212420FDF785FE05
:1039B0004CF25030FFF77DFD4FF400412520FDF71C
:1039C0007CFE4CF25030FFF774FD00214F20FDF7D4
:1039D00074FE00214E20FDF770FEAEE3FE48008825
:1039E00049F22531884204D0FB480088C91C88422E
:1039F00070D11021E720FDF760FE01210020FDF7C6
:103A00005CFE4FF480710120FDF757FE4FF4E0613A
:103A10000220FDF752FE41F230010320FDF74DFE7A
:103A200000210420FDF749FE40F207210820FDF7A0
:103A300044FE00210920FDF740FE00210A20FDF789
:103A40003CFE01210C20FDF738FE00210D20FDF782
:103A500034FE00210F20FDF730FE00211020FDF77D
:103A60002CFE07211120FDF728FE00211220FDF772
:103A700024FE00211320FDF720FE4CF2503401E01B
:103A8000601E84B2002CFBDC4CF2503401E0601E5E
:103A900084B2002CFBDC41F290511020FDF70DFEAA
:103AA00040F227211120FDF708FE4CF2503401E0CE
:103AB000601E84B2002CFBDC4CF2503401E0601E2E
:103AC00084B2002CFBDC9C211220FDF7F6FD4CF2A9
:103AD000503402E0D3E0601E84B2002CFBDC4CF2D8
:103AE000503401E0601E84B2002CFBDC4FF4C8515E
:103AF0001320FDF7E2FD23212920FDF7DEFD0E2135
:103B00002B20FDF7DAFD4CF2503401E0601E84B248
:103B1000002CFBDC4CF2503401E0601E84B2002C1F
:103B2000FBDC00212020FDF7C8FD00212120FDF74E
:103B3000C4FD4CF2503401E0601E84B2002CFBDC6A
:103B40004CF2503401E0601E84B2002CFBDC0721F3
:103B50003020FDF7B2FD40F207713120FDF7ADFDD9
:103B600006213220FDF7A9FD40F204713520FDF752
:103B7000A4FD41F604713620FDF79FFD0421372096
:103B8000FDF79BFD00213820FDF797FD40F20671FF
:103B90003920FDF792FD40F201713C20FDF78DFDCB
:103BA0000F213D20FDF789FD4CF2503401E0601EED
:103BB00084B2002CFBDC4CF2503401E0601E84B275
:103BC000002CFBDC00215020FDF777FDEF21512078
:103BD000FDF773FD00215220FDF76FFD40F23F110C
:103BE0005320FDF76AFD4FF427416020FDF765FD86
:103BF00001216120FDF761FD00216A20FDF75DFDD7
:103C000000218020FDF759FD00218120FDF755FDA1
:103C100000218220FDF751FD00218320FDF74DFD9D
:103C200000218420FDF749FD00218520FDF745FD99
:103C300010219020FDF741FD00219220FDF73DFD70
:103C400003219320FDF739FD4FF488719520FDF78E
:103C500034FD00219720FDF730FD00219820FDF76D
:103C60002CFD40F233110720FDF727FD0021202015
:103C7000FDF723FD00212120FDF71FFD5DE25648E1
:103C8000008849F22031884204D053480088B0F5BA
:103C9000134F7CD100210846FDF70FFD4FF48071D2
:103CA0000120FDF70AFD4FF4E0610220FDF705FD5C
:103CB00041F218010320FDF700FD00210420FDF76B
:103CC000FCFC40F202210820FDF7F7FC002109204E
:103CD000FDF7F3FC00210A20FDF7EFFC01210C2089
:103CE000FDF7EBFC00210D20FDF7E7FC00210F2084
:103CF000FDF7E3FC4CF2503401E0601E84B2002C6E
:103D0000FBDC4CF2503401E0601E84B2002CFBDC82
:103D100040F201110720FDF7D0FC4CF2503401E0D5
:103D2000601E84B2002CFBDC4CF2503401E0601EBB
:103D300084B2002CFBDC4FF486511020FDF7BDFC53
:103D400007211120FDF7B9FC4FF488711220FDF70F
:103D5000B4FC4FF430611320FDF7AFFC00212920A3
:103D6000FDF7ABFC44F210012B20FDF7A6FC00216F
:103D70005020FDF7A2FCEF215120FDF79EFC002111
:103D80005220FDF79AFC40F23F11532000E048E03A
:103D9000FDF793FC4FF41C516020FDF78EFC0121D0
:103DA0006120FDF78AFC00216A20FDF786FC0021D6
:103DB0008020FDF782FC00218120FDF77EFC0021A0
:103DC0008220FDF77AFC00218320FDF776FC00219C
:103DD0008420FDF772FC01E07E0000200021852098
:103DE000FDF76BFC10219020FDF767FC002192206D
:103DF000FDF763FC01219320FDF75FFC4FF4887110
:103E00009520FDF75AFC00219720FDF756FC002174
:103E10009820FDF752FC40F273110720FDF74DFC8E
:103E20008BE1CA48008849F2313188427ED141F2A3
:103E30001401E720FDF741FC4FF480710120FDF7EC
:103E40003CFC4FF400710220FDF737FC41F23001D9
:103E50000320FDF732FC40F202210820FDF72DFC83
:103E600000210920FDF729FC00210A20FDF725FC8F
:103E700000210C20FDF721FC00210D20FDF71DFC89
:103E800000210F20FDF719FC00211020FDF715FC83
:103E900007211120FDF711FC00211220FDF70DFC78
:103EA00000211320FDF709FCC820FFF702FB41F2B7
:103EB00090611020FDF701FC40F227211120FDF751
:103EC000FCFB3220FFF7F5FA0C211220FDF7F5FB81
:103ED0003220FFF7EEFA4FF400611320FDF7EDFBFF
:103EE00011212920FDF7E9FB0B212B20FDF7E5FB34
:103EF0003220FFF7DEFA00212020FDF7DEFB002153
:103F00002120FDF7DAFB00213020FDF7D6FB4FF42E
:103F100083713120FDF7D1FB00213220FDF7CDFB6D
:103F20004FF401713520FDF7C8FB00E073E041F26A
:103F30000A613620FDF7C1FB40F207713720FDF71B
:103F4000BCFB4FF483713820FDF7B7FB40F20771DB
:103F50003920FDF7B2FB40F202413C20FDF7ADFBFA
:103F600040F60F413D20FDF7A8FB00215020FDF752
:103F7000A4FBEF215120FDF7A0FB00215220FDF70B
:103F80009CFB40F23F115320FDF797FB4FF41C516F
:103F90006020FDF792FB01216120FDF78EFB0021DF
:103FA0006A20FDF78AFB00218020FDF786FB0021B7
:103FB0008120FDF782FB00218220FDF77EFB00219E
:103FC0008320FDF77AFB00218420FDF776FB00219A
:103FD0008520FDF772FB10219020FDF76EFB4FF45A
:103FE000C0619220FDF769FB21210720FDF765FBE9
:103FF0003220FFF75EFA61210720FDF75EFB3220D9
:10400000FFF757FA40F233110720FDF756FB322035
:10401000FFF74FFA91E04D48008849F619118842A0
:104020007ED106212820FDF748FB01210020FDF765
:1040300044FB00211020FDF740FB47F2EF21012057
:10404000FDF73BFB4FF4C0610220FDF736FB46F65F
:1040500038210320FDF731FB46F674011120FDF7EE
:104060002CFB00210F20FDF728FB45F208310B2027
:10407000FDF723FB03210C20FDF71FFB0A210D2078
:10408000FDF71BFB4FF438510E20FDF716FBBE2148
:104090001E20FDF712FB4FF400412520FDF70DFB1C
:1040A0004FF4F0412620FDF708FB78212720FDF78B
:1040B00004FB00214E20FDF700FB00214F20FDF7FF
:1040C000FCFA40F6D9011220FDF7F7FA0021302062
:1040D000FDF7F3FA4FF482713120FDF7EEFA4FF459
:1040E00080713220FDF7E9FA40F205313320FDF707
:1040F000E4FA40F205513420FDF7DFFA40F20531D1
:104100003520FDF7DAFA40F207713620FDF7D5FACF
:104110004FF440713720FDF7D0FA4FF4905100E092
:104120000BE03A20FDF7C9FA4FF400613B20FDF7A0
:10413000C4FA33210720FDF7C0FA4CF2503401E0F5
:10414000601E84B2002CFBDC10BD00007E0000204D
:104150002DE9F05F06460F4690469946DDF828A007
:1041600000240025A34600BF24E0A8F1200004EBB2
:104170000010124911F800B0002517E0C5F1070042
:104180004BFA00F000F0010038B13A1991B27219FF
:1041900090B24A4600F046F806E03A1991B2721918
:1041A00090B2524600F03EF8681C85B2082DE5DB5F
:1041B000601C84B2102CD8DBBDE8F09F489E040838
:1041C00010B503460C461648008848F68911884207
:1041D0000BD121464E20FDF770FA40F23F10C01A75
:1041E00081B24F20FDF769FA19E00D48008849F6C1
:1041F0001911884208D119464E20FDF75EFA214672
:104200004F20FDF75AFA0AE021462020FDF755FA23
:1042100040F23F10C01A81B22120FDF74EFA10BDC6
:104220007E00002070B506460C461546B6F5A07F08
:1042300001DCF02C00DD70BD21463046FFF7C0FFE9
:10424000FDF736FA2846FDF72FFA00BFF3E7000026
:104250000EB54FF4A060FDF7C5FA01210846FDF741
:1042600027FB01214848FCF70BFCFDF723F9FDF77C
:1042700031FAFDF7B9FBFFF73BF84FF4E13000F0FE
:10428000EDF8FCF721F8FCF75DF940F2D240FCF7BD
:104290008BF9FDF7B9FAFDF7CDFBFFF713F9FCF742
:1042A000BFFD4EF66020FDF78BFF41F61F4140F247
:1042B000E730FEF74FFA052142F20F70FEF7DAF809
:1042C00060E00020FDF716F90446012C02D0022C14
:1042D00041D120E02D48006808B9012000E000200D
:1042E0002A49803108602A48C069B0F5487F11DA50
:1042F0002748C06932302649C8614FF6FF70002157
:104300000091CDE9011022480422CC21C369BE20CE
:10431000FCF7D4FF20E01F48006808B9012000E046
:1043200000201C49803108601948C069002811DD4F
:104330001748C06932381649C8614FF6FF7000212E
:104340000091CDE9011012480422CC21C369BE209E
:10435000FCF7B4FF00E000BF00BF0F48007880B159
:1043600000200D4908700D480078C0F101000B498C
:1043700008700846007810B1FCF79EFE01E0FCF7DB
:104380004FFD00BF9DE70000000230003481224253
:10439000AC000020380124428200002004000020EC
:1043A0002DE9F0412949C969284A126A881A00F0A2
:1043B00011FA2649C860FFF707F82449C8684FF08A
:1043C0007E5100F009F9044620488169204600F03A
:1043D00095F81E49886188691D4900F027FB03D2C2
:1043E0001B481A49886108E018498869194900F092
:1043F0001DFA02D2174815498861144A1169D0681C
:1044000000F046FB074611488168384600F042FA42
:1044100005460E4A5168906900F03CFA07460B4A7F
:104420001168D06800F036FA8046394600F066F828
:104430000646294600F062F8044600F08FF9034969
:1044400048620846C0680861BDE8F081AC00002001
:1044500000409C4600409CC67047000010B586B0E6
:104460000446012144F20400FDF722FA4FF40070E3
:10447000ADF8140003208DF8160018208DF81700F1
:1044800005A91C48FCF771FA4FF48060ADF81400E0
:1044900004208DF8170005A91648FCF766FA2520B8
:1044A0008DF8000003208DF801008DF80200012036
:1044B0008DF803006846FDF75DF901940020ADF822
:1044C0000800ADF80A00ADF80C00ADF810000C20A3
:1044D000ADF80E0001A90848FEF792FD012240F256
:1044E00025510548FEF767FD01210348FEF720FD31
:1044F00006B010BD000801400038014090EA010FED
:1045000048BF81F0004100F1CA82421A3CBF801AC4
:1045100089184FEAD0524FF07F4C1CEA410FA2EBB2
:10452000D15318BF9CEA026F00F03B804FF0004C63
:104530004CEA00204CEA012121FA03FC10EB0C0CA0
:104540001ED202F1FF325FEA1C2040EBC25038BF9E
:1045500070471CF07F0F4FEA400C18BFBCF17F4F33
:1045600038BF7047C3F12003994008BF20F0010015
:10457000BCF17F4F38BF7047A0F1C04000F051BA86
:104580004FEA3C00000A40EBC25028BF1CF0FF0F6E
:104590004FEA400CE6D018BFBCF17F4F38BF7047E0
:1045A000EAE79CEA026F05D010EA5C0F08BF00F052
:1045B0000040704710B500F0EEF900BF64FBBE3E4E
:1045C000401058BFC0F14040491058BFC1F14041B0
:1045D0008142EFF3008070474FF47F0C1CEAD01249
:1045E0001EBF1CEAD11392EA0C0F93EA0C0F00F0E5
:1045F000858090EA010F48BF42F4807240F4000CBD
:1046000041F400002CF07F4120F07F4000B5814252
:10461000A2EB03020FF2081CACEB504EC0F10000FD
:104620009EF800E04FEA4E0E00FB0EFC38BF49003A
:104630004FEA2C1C02F5FA020CFB0EF34FEACE1ED9
:104640004FEA112C4FEAC1210EEB635E42EB22428E
:104650000EFB0CFC4FEA1C5300FB03114FEA112C1C
:104660004FEA01310EFB0CFC4FEADC4C00FB0C1155
:10467000C14228BF09184CEB03335DF804EB10EB83
:10468000410143EBC250B2F57C0F38BF704729D5CA
:1046900012F0F00F1CBF00F1C04000F00040704766
:1046A000008182838485868788898B8C8D8E8F910B
:1046B0009293959697999A9C9D9FA0A2A3A5A7A82F
:1046C000AAACAEB0B2B3B5B7B9BCBEC0C2C5C7C95B
:1046D000CCCED1D4D7D9DCDFE2E6E9ECF0F3F7FABF
:1046E000FE0000004FEA400C0CF1807CBCF17E4FD4
:1046F00028BF7047B0F1C04000F093B990EA010FB5
:104700000CEAD11348BF42F48072624538BF63455A
:1047100007D213F47F0F16D080EA010000F00040AA
:10472000704710B500F037F9097EFC3E00F005B87F
:1047300080EA010000F00040704780EA010000F0CC
:10474000004000F06EB912F47F0F04BF02487047BA
:1047500080EA010000F065B90000C07F41000B0E47
:10476000D3F19E0208D950F400034FEA032323FA41
:1047700002F048BF4042704710B500F00CF900BF8E
:1047800049922480002070476FF0004282EA2000A6
:1047900070470000C10DD1F19E0206DB4FEA0023F5
:1047A00043F0004323FA02F07047004207D54FEA76
:1047B0004001B1F1FE4F02D24FF00000704710B53A
:1047C00000F0E9F849922480002070476FEA200049
:1047D0007047000010F0004148BF4042B0FA80F33B
:1047E00010FA03F2C3F19D030BD051EAC35101EB60
:1047F0001220530638BF704700F1010008BF20F0B7
:1048000001007047B0FA80F310FA03F2C3F19D0380
:104810000AD0D90501EB1220530638BF704700F1CA
:10482000010008BF20F001007047000050EA010CB1
:1048300000F113801CF5000F58BFBCF5000F01D428
:104840008842704707D710F5000F58BF11F5000FC9
:1048500015D488427047894270471CF5000F04D573
:10486000BCF5000FF7D5814270474FF0807C1CEB00
:10487000400F38BF1CEB410F01D28142704710B589
:1048800000F089F8922449004FF000504FF0805119
:10489000FFF796BE4FF47F0C1CEAD0121EBF1CEA35
:1048A000D11392EA0C0F93EA0C0F00F0478090EAC4
:1048B000010F48BF42F480724FF0004C4CEA0020D8
:1048C0004CEA012102EB0302A0FB0113A2F5000256
:1048D000002918BF43F001035B0028BF4FEA3303F0
:1048E00042EB22425FEA132C4CEBC2502EBFBCEBD2
:1048F000436FB2F57C0F70474FEA036CBCF1004F79
:1049000008BF20F00100B2F57C0F38BF70470BD50F
:1049100082F0FF0212F5803FC8BF704700F1C0402F
:10492000D8BF00F00040704700F5000C5FEA4C0C67
:1049300048BF7047B0F1C04000F073B890EA010F73
:104940000CEAD11348BF42F48072624538BF634518
:1049500004D280EA010000F00040704710B500F07A
:104960001AF800BF8900013E00F007B800F009B84E
:104970005FEA410C5FEA1C6C08D080EA010000F09D
:1049800050B85FEA400C5FEA1C6CF6D14FF0004073
:10499000A0F5800070470EF1020E2EF0030E5EF8B7
:1049A000044B244204D44FEA4102B2F17F4F11D8A4
:1049B0004FEA4003B3F17F4F0CD80ED14FEAD07CC1
:1049C000B2F17F4F0CEB4C0C0CF1020C08BF4CEB1E
:1049D000D17C04E04FF0080C01E04FEAD17C0CEBF5
:1049E0004C0324FA03F404F00704B4F1040C06D2D7
:1049F0000EEB840CBDE810404CF0010C6047DFE882
:104A00000CF0070802024FF00040A0F5800010BD36
:104A10000846420018BFD2F1807288BF00F0004003
:104A200010BDFF2141EAD050C005704751EA000C8B
:104A300000F113801CF5000F58BFBCF5000F01D426
:104A40008142704707D711F5000F58BF10F5000FCE
:104A500015D481427047894270471CF5000F04D578
:104A6000BCF5000FF7D5884270474FF0807C1CEBF7
:104A7000410F38BF1CEB400F01D28842704780EADB
:104A8000010081EA000180EA0100FFF7F8BE0000A2
:104A900090EA010F48BF81F000413FF536AD421A60
:104AA00004D882F00042A0EB020011444FEAD05239
:104AB0004FF07F4C1CEA410FA2EBD15318BF9CEA88
:104AC000026F4AD04FF0004C4CEA00204CEA012122
:104AD00021FA03FCB0EB0C0C0FD412F0FE0F36D011
:104AE0005FEA4C001DD5001240EBC25038BF704742
:104AF0001CF03F0F18BF70470BE0A2F101025FEA04
:104B00001C2040EBC25038BF70471CF07F0F18BF0D
:104B10007047C3F12003994014BF401E20F00100EC
:104B2000704780084FEA122308BF7047B0FA80FC34
:104B3000A2EB0C02CCF1280C60FA0CF093EA122FD5
:104B400004BF00EBC25070474FEAC3707047130AAE
:104B50005FEADC1008BF7047F6E79CEA026F04D0FA
:104B600010EA5C0F08BF0020704710B5FFF713FF75
:104B700040DFF63E81F0004070470000000000007A
:104B80000000000000000000000000000000000025
:104B90000000000000000000000000000000000015
:104BA0000000000000000000000000000000000005
:104BB00000000000000000000000000000000000F5
:104DF0000000000000000000000000000000600053
:104E00003000100000000000000000000000000062
:104E1000000000000000000000000000300048001A
:104E2000480030000000000000000000000000000A
:104E3000000003000780078003000000000000005E
:104E400000000000000000000000000000007FFEE5
:104E50000000000000000000000000000000000052
:104E600000000000000000000000082008200440AE
:104E700004400280028001000000000000000000E9
:104E800000000000000000000000000000000C60B6
:104E90000C600000000000000000000000000000A6
:104EA0000000000000000000000000000000000002
:104EB000024002400480048009000900120024001E
:104EC00000000000000000000400040004000800CE
:104ED00008001FF82008401000100820044002803D
:104EE000010000C0004000000000000000000000C1
:104EF000000000000000FFFE0000000000000000B5
:104F000000000000000000000000000000000000A1
:104F10000000000000003F0440F800000000000016
:104F20000000000000000000028002800280028079
:104F30000280028002800280028002800280028061
:104F40000280028002800280000000000000000059
:104F5000000000006318631800000000000000005B
:104F60000000000000000000000000020004000833
:104F7000000C000C00000000000000000000000019
:104F80000000000000000000000060006000200041
:104F90004000800000000000000000000000000051
:104FA0000000000000000000000000440088011024
:104FB00001980198000000000000000000000000BF
:104FC0000000000000000000000001980198008827
:104FD000011002200000000000000000000000009E
:104FE00000000000000000000000000400080010A5
:104FF0000010001000100010001000100010001031
:105000000010000800040000000040002000100014
:105010001000100010001000100010001000100010
:105020001000200040000000000000020004000802
:105030000010002000400080004000200010000808
:10504000000400020000000000008000400020007A
:1050500010000800040002000400080010002000F6
:1050600040008000000000000008001200240048FA
:10507000009001200240048002400120009000487E
:1050800000240012000800042000900048002400C2
:10509000120009000480024004800900120024006C
:1050A0004800900020004000000001C00100010005
:1050B00001000100010001000100010001000100E8
:1050C00001000100000000000000010001000100DB
:1050D00001000100010001000100010001000100C8
:1050E0000100070000000000000007C0044005C0E8
:1050F0000500050005000500050005000500050088
:105100000500070000000000000001C00140014050
:105110000140014001400140014001400140074081
:10512000044007C000000000000000FE008400886A
:1051300000880090009000900090009000900088FF
:105140000088008400FE00000000FE0042002200F3
:10515000220012001200120012001200120022009F
:1051600022004200FE000000000000FE00FC00F8EB
:1051700000F000F000E000E000E000E000F000F0EF
:1051800000F800FC00FE00000000FE007E003E0073
:105190001E001E000E000E000E000E001E001E005F
:1051A0003E007E00FE000000000000000000010044
:1051B000010001000FE001000100010000000FE00C
:1051C00000000000000000000000000000001010BF
:1051D00008200440028001000280044008201010D2
:1051E00000000000000000000000000000000000BF
:1051F0000000010000001FF000000100000000009E
:10520000000000000000000000000000000000009E
:105210000300030000000000000003000300000082
:105220000000000000000000000001000280028079
:105230000440044008200820101010102008200806
:1052400020084004400400000000400440042008FE
:1052500020082008101010100820082004400440E6
:10526000028002800100000000007FFC2004100486
:1052700008000400020001000200040008001004FD
:1052800020047FFC0000000000003FF81010101008
:10529000101010101010101010101010101010100E
:1052A00010101010783C0000000020082008200892
:1052B00020082008200820082008200820082008AE
:1052C0001010082007C00000000007C008201010C0
:1052D000200820082008200820082008200820088E
:1052E0002008200820080000000007801800200087
:1052F0002000400040007F8040004000400020002F
:105300002000180007800000000000000000183096
:1053100018300000000000000000000018301830B5
:10532000000000000000000000000000000000027B
:105330000004000800100020004000804100A2008E
:10534000140008000000000000000100010001003E
:105350000100010001000100010001000100010045
:10536000010001001FF00000024002400240024024
:10537000024002400480048004800480048009000C
:1053800009000900090009000000000400080010DD
:10539000002000400080010002000400080010000E
:1053A00020007FFC000000000000000000000780DB
:1053B000186020102010400840084008000000003D
:1053C00000000000000000000000000007801860DE
:1053D00020102010400843084308400820102010E7
:1053E0001860078000000000000000C001000100FC
:1053F00001000100010001000100010001000100A5
:105400000100010006000000006000900080010023
:1054100001000780094009400A400A400780020055
:10542000020004002400180000000000000000003A
:1054300000007FFC00007FFC00007FFC00000000FB
:10544000000000000000000000000000187020882C
:1054500041044104420422081C3000007FFC00008B
:105460007FFC0000000000000000000000000000C1
:1054700000003804470800F03804470800F0000036
:10548000000000000000000000000000000000001C
:1054900038784084410281028102410242043C3852
:1054A00000000000000000000000000000000000FC
:1054B0003C7E4280410081008100410042803C7E70
:1054C000000000000000000000100020002000404C
:1054D00000407FFC0080010002007FFC040004000B
:1054E000080010001000200000000418046005806F
:1054F00006001C006400840064001C000600058097
:105500000460041800000000000030400C4003401C
:1055100000C00070004C0042004C007000C003400E
:105520000C403040000000000018006001800600C0
:105530001800600080006000980066001980066016
:10554000019800600018000030000C00030000C04B
:105550000030000C0002000C003200CC03300CC004
:1055600033000C00300000000000000000000000CC
:105570003C78428481028102810242843C780000AE
:10558000000000000000000000000000303030305B
:105590000000000000000000000000000000030008
:1055A00003000000000000000000000000000300F5
:1055B0000300000000000000000000000000303088
:1055C00030300000000000000000010003800540B2
:1055D00009201110010001000100010003800440B6
:1055E00004400440038000000000038004400440A5
:1055F00004400380010001003FF8010001000100A8
:10560000010001000100000000000000300048001F
:105610004800300000000000000000000000000012
:105620000000000000000000000001000100010077
:105630000200020002000400000000000000000060
:1056400000000000000000000000022002200220F4
:1056500004400440044008800000000000000000F6
:105660000000000000000000200053F4240C080497
:1056700008041000100010001000100010000804B2
:105680000804040803F0000001000FE811182108C5
:105690002108210011000F0001E00110010821087C
:1056A000210831102FE001000000400227E4181803
:1056B00010082004200420042004200420041008E2
:1056C000181827E440020000001000200FE81058CE
:1056D00020484080408041004100420042002408B0
:1056E00014100FE01000200001C002200220020070
:1056F000020002003FE00200020002003A00460001
:105700004204450438F800000008301048204840A2
:1057100048804900320004000800118C2252425295
:1057200082520252018C00000780084008C0040029
:1057300002000300048008400840058002000100C8
:10574000048008400840078060802140310031001B
:1057500029182924292429242524252425242524FD
:1057600023182300A17E4100010001000280028075
:1057700002800440FC7E400430180820082011906C
:10578000165018302008000001000100038003803B
:10579000038007C0FFFE3FF81FF00FE00FE01FF08F
:1057A0001EF0183020080000000007C01830200844
:1057B000200840044004400440044004200820081D
:1057C000183007C000000000000007C01FF03FF8BD
:1057D0003FF87FFC7FFC7FFC7FFC7FFC3FF83FF8BD
:1057E0001FF007C000000000000007C0183027C8E5
:1057F000282850145014501450145014282827C826
:10580000183007C00000000001000280044008209A
:1058100010102008400480024004200810100820C6
:1058200004400280010000000100038007C00FE077
:105830001FF03FF87FFCFFFE7FFC3FF81FF00FE0FA
:1058400007C003800100000000007FFC400440040A
:105850004004400440044004400440044004400428
:1058600040047FFC0000000000007FFC7FFC7FFC08
:105870007FFC7FFC7FFC7FFC7FFC7FFC7FFC7FFC50
:105880007FFC7FFC0000000000000100028004405B
:1058900004400820082010101010200820084004A0
:1058A0004004FFFE0000000000000100038007C06C
:1058B00007C00FE00FE01FF01FF03FF83FF87FFC3C
:1058C0007FFCFFFE000000000000430423081010CE
:1058D000082004400280610C628C044008201010F3
:1058E00023084304800200000000000000000000C4
:1058F000000000200038FFFE0038002000000000FB
:105900000000000000000000000000000000000097
:10591000000008003800FFFE38000800000000000A
:10592000000000000000000001000100038003806F
:1059300007C0010001000100010001000100010099
:10594000010001000100010001000100010001004F
:10595000010001000100010001000100010007C079
:10596000038003800100010000000000FFFCFFFC39
:10597000FFFCFFFC0000000000000000FFFCFFFC3B
:10598000FFFCFFFC0000000000000100000001001F
:1059900003000100010001000100010001000100FD
:1059A00001000100038000000000044000000440EA
:1059B0000CC004400440044004400440044004403F
:1059C00004400EE000000000000011100000111063
:1059D000333011101110111011101110111011107D
:1059E00011103BB800000000000020000000271C40
:1059F00062082208220821102110211020A020A0D6
:105A000020A0204070400000000000000000383856
:105A100010101010101008200820044004400280CC
:105A2000028001000100000000000008000071C8B1
:105A30002098208820881108110811080A080A08EF
:105A40000A080408041C0000000000240000E3A46D
:105A5000416C41244124222422242224142414248D
:105A600014240824087E0000000000540000E3D441
:105A700041FC41544154225422542254145414548D
:105A80001454085408FE00000000400000004E1CA2
:105A9000C40844084210411040A0404040A04110BA
:105AA00042084404EE0E00000000000000003838F8
:105AB00010100820044002800100028004400820E9
:105AC00010102008701C0000000000000000000002
:105AD00000000000000000000000000000000000C6
:105AE00000000000000000000000000000000000B6
:105AF00000000000000000000000000000000000A6
:105B00000000000000000000000000000000000095
:105B10000000000000000000000000000000000085
:105B20000000000000000000000000000000000075
:105B30000000000000000000000000000000000065
:105B40000000000000000000000000000000000055
:105B50000000000000000000000000000000000045
:105B60000000000000000000000000000000000035
:105B70000000000000000000000000000000000025
:105B800000000000000000000000020006000A0003
:105B900002000200020002000200020002000200F5
:105BA000020002000240000000000F001080108080
:105BB0000080008000800100060008001000100036
:105BC000108010801F90000000000F0010801080D7
:105BD000008000800100060001000080008010802D
:105BE000108010800F100000000003000500050069
:105BF0000500090009000900110011001FC0010083
:105C0000010001000108010000001F8010001000C9
:105C10001000100010001700188010800080008015
:105C2000108010800F10000000000F001080108006
:105C30001080100010001700188010801080108055
:105C4000108010800F10000000001FC01040104096
:105C500000800100010001000200020002000200B9
:105C6000020002000208000000000F0010801080F7
:105C7000108010800900060009001080108010803C
:105C8000108010800F10000000000F0010801080A6
:105C900010801080108011800E80008000801080A5
:105CA000108010800F100000000023C06420A4208A
:105CB00024202420242024202420242024202420C4
:105CC0002420242023C80000000020806180A280BE
:105CD00020802080208020802080208020802080C4
:105CE0002080208020900000000023C06420A42099
:105CF0002020202020202040218022002400240079
:105D00002420242027E40000000023C06420A420D5
